{
  "_format": "hh-sol-artifact-1",
  "contractName": "StorePaymentRouter",
  "sourceName": "contracts/StorePaymentRouter.sol",
  "abi": [
    {
      "inputs": [
        {
          "internalType": "address",
          "name": "admin",
          "type": "address"
        },
        {
          "internalType": "address",
          "name": "_unityCoin",
          "type": "address"
        },
        {
          "internalType": "address",
          "name": "_storeRegistry",
          "type": "address"
        },
        {
          "internalType": "address",
          "name": "_rewardEngine",
          "type": "address"
        }
      ],
      "stateMutability": "nonpayable",
      "type": "constructor"
    },
    {
      "inputs": [],
      "name": "AccessControlBadConfirmation",
      "type": "error"
    },
    {
      "inputs": [
        {
          "internalType": "address",
          "name": "account",
          "type": "address"
        },
        {
          "internalType": "bytes32",
          "name": "neededRole",
          "type": "bytes32"
        }
      ],
      "name": "AccessControlUnauthorizedAccount",
      "type": "error"
    },
    {
      "inputs": [],
      "name": "ReentrancyGuardReentrantCall",
      "type": "error"
    },
    {
      "anonymous": false,
      "inputs": [
        {
          "indexed": true,
          "internalType": "address",
          "name": "pausedBy",
          "type": "address"
        },
        {
          "indexed": false,
          "internalType": "uint256",
          "name": "timestamp",
          "type": "uint256"
        }
      ],
      "name": "ContractPaused",
      "type": "event"
    },
    {
      "anonymous": false,
      "inputs": [
        {
          "indexed": true,
          "internalType": "address",
          "name": "unpausedBy",
          "type": "address"
        },
        {
          "indexed": false,
          "internalType": "uint256",
          "name": "timestamp",
          "type": "uint256"
        }
      ],
      "name": "ContractUnpaused",
      "type": "event"
    },
    {
      "anonymous": false,
      "inputs": [
        {
          "indexed": true,
          "internalType": "address",
          "name": "buyer",
          "type": "address"
        },
        {
          "indexed": true,
          "internalType": "address",
          "name": "storeOwner",
          "type": "address"
        },
        {
          "indexed": false,
          "internalType": "uint256",
          "name": "amount",
          "type": "uint256"
        },
        {
          "indexed": true,
          "internalType": "bytes32",
          "name": "purchaseId",
          "type": "bytes32"
        },
        {
          "indexed": false,
          "internalType": "string",
          "name": "reason",
          "type": "string"
        }
      ],
      "name": "PurchaseFailed",
      "type": "event"
    },
    {
      "anonymous": false,
      "inputs": [
        {
          "indexed": true,
          "internalType": "address",
          "name": "oldAddress",
          "type": "address"
        },
        {
          "indexed": true,
          "internalType": "address",
          "name": "newAddress",
          "type": "address"
        },
        {
          "indexed": true,
          "internalType": "address",
          "name": "updatedBy",
          "type": "address"
        }
      ],
      "name": "RewardEngineUpdated",
      "type": "event"
    },
    {
      "anonymous": false,
      "inputs": [
        {
          "indexed": true,
          "internalType": "bytes32",
          "name": "role",
          "type": "bytes32"
        },
        {
          "indexed": true,
          "internalType": "bytes32",
          "name": "previousAdminRole",
          "type": "bytes32"
        },
        {
          "indexed": true,
          "internalType": "bytes32",
          "name": "newAdminRole",
          "type": "bytes32"
        }
      ],
      "name": "RoleAdminChanged",
      "type": "event"
    },
    {
      "anonymous": false,
      "inputs": [
        {
          "indexed": true,
          "internalType": "bytes32",
          "name": "role",
          "type": "bytes32"
        },
        {
          "indexed": true,
          "internalType": "address",
          "name": "account",
          "type": "address"
        },
        {
          "indexed": true,
          "internalType": "address",
          "name": "sender",
          "type": "address"
        }
      ],
      "name": "RoleGranted",
      "type": "event"
    },
    {
      "anonymous": false,
      "inputs": [
        {
          "indexed": true,
          "internalType": "bytes32",
          "name": "role",
          "type": "bytes32"
        },
        {
          "indexed": true,
          "internalType": "address",
          "name": "account",
          "type": "address"
        },
        {
          "indexed": true,
          "internalType": "address",
          "name": "sender",
          "type": "address"
        }
      ],
      "name": "RoleRevoked",
      "type": "event"
    },
    {
      "anonymous": false,
      "inputs": [
        {
          "indexed": true,
          "internalType": "address",
          "name": "oldAddress",
          "type": "address"
        },
        {
          "indexed": true,
          "internalType": "address",
          "name": "newAddress",
          "type": "address"
        },
        {
          "indexed": true,
          "internalType": "address",
          "name": "updatedBy",
          "type": "address"
        }
      ],
      "name": "StoreRegistryUpdated",
      "type": "event"
    },
    {
      "anonymous": false,
      "inputs": [
        {
          "indexed": true,
          "internalType": "address",
          "name": "oldAddress",
          "type": "address"
        },
        {
          "indexed": true,
          "internalType": "address",
          "name": "newAddress",
          "type": "address"
        },
        {
          "indexed": true,
          "internalType": "address",
          "name": "updatedBy",
          "type": "address"
        }
      ],
      "name": "UnityCoinUpdated",
      "type": "event"
    },
    {
      "anonymous": false,
      "inputs": [
        {
          "indexed": true,
          "internalType": "address",
          "name": "buyer",
          "type": "address"
        },
        {
          "indexed": true,
          "internalType": "address",
          "name": "storeOwner",
          "type": "address"
        },
        {
          "indexed": false,
          "internalType": "uint256",
          "name": "amount",
          "type": "uint256"
        },
        {
          "indexed": true,
          "internalType": "bytes32",
          "name": "purchaseId",
          "type": "bytes32"
        },
        {
          "indexed": false,
          "internalType": "string",
          "name": "orderRef",
          "type": "string"
        },
        {
          "indexed": false,
          "internalType": "uint256",
          "name": "timestamp",
          "type": "uint256"
        }
      ],
      "name": "VerifiedStorePurchase",
      "type": "event"
    },
    {
      "inputs": [],
      "name": "DEFAULT_ADMIN_ROLE",
      "outputs": [
        {
          "internalType": "bytes32",
          "name": "",
          "type": "bytes32"
        }
      ],
      "stateMutability": "view",
      "type": "function"
    },
    {
      "inputs": [],
      "name": "PAUSER",
      "outputs": [
        {
          "internalType": "bytes32",
          "name": "",
          "type": "bytes32"
        }
      ],
      "stateMutability": "view",
      "type": "function"
    },
    {
      "inputs": [
        {
          "internalType": "bytes32",
          "name": "role",
          "type": "bytes32"
        }
      ],
      "name": "getRoleAdmin",
      "outputs": [
        {
          "internalType": "bytes32",
          "name": "",
          "type": "bytes32"
        }
      ],
      "stateMutability": "view",
      "type": "function"
    },
    {
      "inputs": [
        {
          "internalType": "bytes32",
          "name": "role",
          "type": "bytes32"
        },
        {
          "internalType": "uint256",
          "name": "index",
          "type": "uint256"
        }
      ],
      "name": "getRoleMember",
      "outputs": [
        {
          "internalType": "address",
          "name": "",
          "type": "address"
        }
      ],
      "stateMutability": "view",
      "type": "function"
    },
    {
      "inputs": [
        {
          "internalType": "bytes32",
          "name": "role",
          "type": "bytes32"
        }
      ],
      "name": "getRoleMemberCount",
      "outputs": [
        {
          "internalType": "uint256",
          "name": "",
          "type": "uint256"
        }
      ],
      "stateMutability": "view",
      "type": "function"
    },
    {
      "inputs": [
        {
          "internalType": "bytes32",
          "name": "role",
          "type": "bytes32"
        }
      ],
      "name": "getRoleMembers",
      "outputs": [
        {
          "internalType": "address[]",
          "name": "",
          "type": "address[]"
        }
      ],
      "stateMutability": "view",
      "type": "function"
    },
    {
      "inputs": [
        {
          "internalType": "bytes32",
          "name": "role",
          "type": "bytes32"
        },
        {
          "internalType": "address",
          "name": "account",
          "type": "address"
        }
      ],
      "name": "grantRole",
      "outputs": [],
      "stateMutability": "nonpayable",
      "type": "function"
    },
    {
      "inputs": [
        {
          "internalType": "bytes32",
          "name": "role",
          "type": "bytes32"
        },
        {
          "internalType": "address",
          "name": "account",
          "type": "address"
        }
      ],
      "name": "hasRole",
      "outputs": [
        {
          "internalType": "bool",
          "name": "",
          "type": "bool"
        }
      ],
      "stateMutability": "view",
      "type": "function"
    },
    {
      "inputs": [],
      "name": "pause",
      "outputs": [],
      "stateMutability": "nonpayable",
      "type": "function"
    },
    {
      "inputs": [],
      "name": "paused",
      "outputs": [
        {
          "internalType": "bool",
          "name": "",
          "type": "bool"
        }
      ],
      "stateMutability": "view",
      "type": "function"
    },
    {
      "inputs": [
        {
          "internalType": "address",
          "name": "storeOwner",
          "type": "address"
        },
        {
          "internalType": "uint256",
          "name": "amount",
          "type": "uint256"
        },
        {
          "internalType": "string",
          "name": "orderRef",
          "type": "string"
        }
      ],
      "name": "payVerifiedStore",
      "outputs": [],
      "stateMutability": "nonpayable",
      "type": "function"
    },
    {
      "inputs": [
        {
          "internalType": "address[]",
          "name": "storeOwners",
          "type": "address[]"
        },
        {
          "internalType": "uint256[]",
          "name": "amounts",
          "type": "uint256[]"
        },
        {
          "internalType": "string[]",
          "name": "orderRefs",
          "type": "string[]"
        }
      ],
      "name": "payVerifiedStoresBatch",
      "outputs": [],
      "stateMutability": "nonpayable",
      "type": "function"
    },
    {
      "inputs": [
        {
          "internalType": "bytes32",
          "name": "role",
          "type": "bytes32"
        },
        {
          "internalType": "address",
          "name": "callerConfirmation",
          "type": "address"
        }
      ],
      "name": "renounceRole",
      "outputs": [],
      "stateMutability": "nonpayable",
      "type": "function"
    },
    {
      "inputs": [
        {
          "internalType": "bytes32",
          "name": "role",
          "type": "bytes32"
        },
        {
          "internalType": "address",
          "name": "account",
          "type": "address"
        }
      ],
      "name": "revokeRole",
      "outputs": [],
      "stateMutability": "nonpayable",
      "type": "function"
    },
    {
      "inputs": [],
      "name": "rewardEngine",
      "outputs": [
        {
          "internalType": "contract ISCRewardEngine",
          "name": "",
          "type": "address"
        }
      ],
      "stateMutability": "view",
      "type": "function"
    },
    {
      "inputs": [
        {
          "internalType": "address",
          "name": "newEngine",
          "type": "address"
        }
      ],
      "name": "setRewardEngine",
      "outputs": [],
      "stateMutability": "nonpayable",
      "type": "function"
    },
    {
      "inputs": [
        {
          "internalType": "address",
          "name": "newRegistry",
          "type": "address"
        }
      ],
      "name": "setStoreRegistry",
      "outputs": [],
      "stateMutability": "nonpayable",
      "type": "function"
    },
    {
      "inputs": [
        {
          "internalType": "address",
          "name": "newUnityCoin",
          "type": "address"
        }
      ],
      "name": "setUnityCoin",
      "outputs": [],
      "stateMutability": "nonpayable",
      "type": "function"
    },
    {
      "inputs": [],
      "name": "storeRegistry",
      "outputs": [
        {
          "internalType": "contract IVerifiedStoreRegistry",
          "name": "",
          "type": "address"
        }
      ],
      "stateMutability": "view",
      "type": "function"
    },
    {
      "inputs": [
        {
          "internalType": "bytes4",
          "name": "interfaceId",
          "type": "bytes4"
        }
      ],
      "name": "supportsInterface",
      "outputs": [
        {
          "internalType": "bool",
          "name": "",
          "type": "bool"
        }
      ],
      "stateMutability": "view",
      "type": "function"
    },
    {
      "inputs": [],
      "name": "unityCoin",
      "outputs": [
        {
          "internalType": "contract IERC20",
          "name": "",
          "type": "address"
        }
      ],
      "stateMutability": "view",
      "type": "function"
    },
    {
      "inputs": [],
      "name": "unpause",
      "outputs": [],
      "stateMutability": "nonpayable",
      "type": "function"
    }
  ],
  "bytecode": "0x6080346200029a57601f62001acc38819003918201601f191683019291906001600160401b038411838510176200029e5781608092849260409687528339810103126200029a576200005181620002b2565b9060209162000062838301620002b2565b916200007e606062000076878401620002b2565b9201620002b2565b60016002556001600160a01b038381169491929185156200025657811691821562000214578116928315620001c25716918215620001725790620000f793929160018060a01b0319918260035416176003558160045416176004556005541617600555620000ec81620002c7565b620001565762000337565b62000119575b6005805460ff60a01b19169055825161164190816200044b8239f35b60016200014d927f539440820030c4994db4e31b6b800deafd503688728f932addfe7a410515c14c5f5252825f20620003d7565b505f80620000fd565b5f8052600184526200016b83865f20620003d7565b5062000337565b865162461bcd60e51b8152600481018790526024808201527f52657761726420656e67696e652063616e6e6f74206265207a65726f206164646044820152637265737360e01b6064820152608490fd5b875162461bcd60e51b815260048101889052602560248201527f53746f72652072656769737472792063616e6e6f74206265207a65726f206164604482015264647265737360d81b6064820152608490fd5b60648789519062461bcd60e51b825280600483015260248201527f556e697479436f696e2063616e6e6f74206265207a65726f20616464726573736044820152fd5b875162461bcd60e51b815260048101889052601c60248201527f41646d696e2063616e6e6f74206265207a65726f2061646472657373000000006044820152606490fd5b5f80fd5b634e487b7160e01b5f52604160045260245ffd5b51906001600160a01b03821682036200029a57565b6001600160a01b03165f8181525f8051602062001aac833981519152602052604090205460ff1662000332575f8181525f8051602062001aac83398151915260205260408120805460ff191660011790553391905f8051602062001a8c8339815191528180a4600190565b505f90565b6001600160a01b03165f8181527f797e0b86ff47a7852e6aa2fbaad2fe3f2db21364d644c39c926eba6085d49f3460205260409020547f539440820030c4994db4e31b6b800deafd503688728f932addfe7a410515c14c919060ff16620003d157815f525f60205260405f20815f5260205260405f20600160ff1982541617905533915f8051602062001a8c8339815191525f80a4600190565b50505f90565b6001810190825f528160205260405f2054155f1462000443578054680100000000000000008110156200029e57600181018083558110156200042f578390825f5260205f20015554915f5260205260405f2055600190565b634e487b7160e01b5f52603260045260245ffd5b5050505f9056fe6080806040526004361015610012575f80fd5b5f905f3560e01c90816301ffc9a71461100857508063248a9ca314610fdc5780632f2ff15d14610f7857806336568abe14610f2f5780633f4ba83a14610e9c5780635c975abb14610e775780636a1062e114610e4f5780637fa240e214610e275780638408c83b146109d45780638456cb591461093657806388232833146108c05780639010d07c1461087a57806391d1485414610831578063a217fddf14610815578063a3246ad314610772578063ab5829d714610749578063ae505d27146106d3578063bf28217f1461065d578063ca15c87314610633578063d547741f146105f2578063d9dc8694146105b75763e524ad2714610110575f80fd5b346105b45760603660031901126105b45760043567ffffffffffffffff81116105b0576101419036906004016110a1565b60243567ffffffffffffffff811161055c576101619036906004016110a1565b909160443567ffffffffffffffff81116105ac576101839036906004016110a1565b92909161018e61137f565b6101a060ff60055460a01c16156110d2565b6101ab8282146111ed565b6101b68482146111ed565b801561057857865b8181106101ce5787600160025580f35b6101d9818389611231565b356001600160a01b0381168103610574576101f5828589611231565b359086831015610560579089918360051b870135601e198836030181121561055c57870167ffffffffffffffff81351161055c5780353603602082011361055c576001600160a01b038216158015610554575b8015610542575b6105365760405160208101903360601b82526bffffffffffffffffffffffff198460601b1660348201528460488201526102b660c8606885356020870182860137853584019042908201524360888201528360a8918b83820152039081018452018261113b565b5190206004805460405163b9209e3360e01b81526001600160a01b03868116938201939093529293929160209183916024918391165afa9081156104af578691610517575b50156104ba576003546040516323b872dd60e01b81523360048201526001600160a01b038581166024830152604482018790529091602091839160649183918b91165af19081156104af578691610480575b501561041f5760405182916001600160a01b0385169133917ff05493cf170e93fe32ccfba2fc29f2acd930b36e3dee1aba4a54cee6d1fc1e9d9190819061039d9042908035906020018c85611175565b0390a46005546001600160a01b0316803b1561041b5760405163f397cfed60e01b81523360048201526001600160a01b03939093166024840152604483019390935260648201529082908290608490829084905af1610403575b50506001905b016101be565b61040c90611113565b61041757875f6103f7565b8780fd5b8480fd5b506040805193845260208401819052601290840152711550c81d1c985b9cd9995c8819985a5b195960721b60608401526001949350916001600160a01b039091169033905f805160206115ec8339815191529080608081015b0390a46103fd565b6104a2915060203d6020116104a8575b61049a818361113b565b81019061115d565b5f61034d565b503d610490565b6040513d88823e3d90fd5b5060408051938452602084018190526012908401527114dd1bdc99481b9bdd081d995c9a599a595960721b60608401526001949350916001600160a01b039091169033905f805160206115ec833981519152908060808101610478565b610530915060203d6020116104a85761049a818361113b565b5f6102fb565b505050506001906103fd565b50336001600160a01b0383161461024f565b508215610248565b8380fd5b634e487b7160e01b8a52603260045260248afd5b8880fd5b60405162461bcd60e51b815260206004820152600c60248201526b456d7074792061727261797360a01b6044820152606490fd5b8580fd5b5080fd5b80fd5b50346105b457806003193601126105b45760206040517f539440820030c4994db4e31b6b800deafd503688728f932addfe7a410515c14c8152f35b50346105b45760403660031901126105b45761062f600435610612611075565b908084528360205261062a6001604086200154611324565b611345565b5080f35b50346105b45760203660031901126105b45760406020916004358152600183522054604051908152f35b50346105b45760203660031901126105b45761067761108b565b61067f6112ce565b6001600160a01b039081166106958115156111a8565b600380546001600160a01b0319811683179091553392167f0557e6ad7106d8992288c4650a1f4962f1a4487dfeaad90609f5cc130ea9f4678480a480f35b50346105b45760203660031901126105b4576106ed61108b565b6106f56112ce565b6001600160a01b0390811661070b8115156111a8565b600580546001600160a01b0319811683179091553392167f8a6425c3c4661265b9be2c47249463d90fc6ed3ad18d4b0b7ff30eea3d91189e8480a480f35b50346105b457806003193601126105b4576005546040516001600160a01b039091168152602090f35b50346105b457602090816003193601126105b45790600435825260018082526040832092604051808486549182815201908196845285842090845b81811061080257505050816107c391038261113b565b6040519380850191818652518092526040850195925b8281106107e65785870386f35b83516001600160a01b03168752958101959281019284016107d9565b82548452928701929186019186016107ad565b50346105b457806003193601126105b457602090604051908152f35b50346105b45760403660031901126105b457604061084d611075565b91600435815280602052209060018060a01b03165f52602052602060ff60405f2054166040519015158152f35b50346105b45760403660031901126105b4576108a76020916004358152600183526040602435912061148e565b905460405160039290921b1c6001600160a01b03168152f35b50346105b45760203660031901126105b4576108da61108b565b6108e26112ce565b6001600160a01b039081166108f88115156111a8565b600480546001600160a01b0319811683179091553392167f44e81577a4f1ebabbf77e4df8217d78fe99d43cbcc9b5bf061bf14a9c8d2db558480a480f35b50346105b457806003193601126105b45761094f611255565b60055460ff8160a01c1661099e5760ff60a01b1916600160a01b1760055560405142815233907f80170b5fcdd2bf1e0660ef4b8851f86685f64d41b1a19de1471947ece8725aac90602090a280f35b60405162461bcd60e51b815260206004820152600e60248201526d105b1c9958591e481c185d5cd95960921b6044820152606490fd5b5034610bef576060366003190112610bef576109ee61108b565b60248035919067ffffffffffffffff604435818111610bef5736602382011215610bef578060040135918211610bef578281019083833692010111610bef57610a3561137f565b610a4760ff60055460a01c16156110d2565b6001600160a01b0391848316918215610dd8578615610d9457823314610d5a5760405194602095868101903360601b82526bffffffffffffffffffffffff198960601b16603482015289604882015284846068830137610ac060a88287810142606882015243608882015203608881018452018261113b565b51902095818187600454166040519283809263b9209e3360e01b82528a60048301525afa908115610ca3575f91610d3d575b5015610cae576003546040516323b872dd60e01b81523360048201526001600160a01b038a166024820152604481018b9052908290829060649082905f908c165af1908115610ca3575f91610c86575b5015610bf3575050907ff05493cf170e93fe32ccfba2fc29f2acd930b36e3dee1aba4a54cee6d1fc1e9d610b83869493604051918291339542918d85611175565b0390a460055416803b15610bef5760405163f397cfed60e01b81523360048201526001600160a01b0393909316602484015260448301939093526064820152905f908290608490829084905af1610bde575b50600160025580f35b610be89150611113565b5f80610bd5565b5f80fd5b86858a6040519081526040848201525f805160206115ec833981519152339180610c406040820160409060128152711550c81d1c985b9cd9995c8819985a5b195960721b60208201520190565b0390a4610c8260405192839262461bcd60e51b84526004840152820160409060128152711550c81d1c985b9cd9995c8819985a5b195960721b60208201520190565b0390fd5b610c9d9150823d84116104a85761049a818361113b565b5f610b42565b6040513d5f823e3d90fd5b86858a6040519081526040848201525f805160206115ec833981519152339180610cfb60408201604090601281527114dd1bdc99481b9bdd081d995c9a599a595960721b60208201520190565b0390a4610c8260405192839262461bcd60e51b845260048401528201604090601281527114dd1bdc99481b9bdd081d995c9a599a595960721b60208201520190565b610d549150823d84116104a85761049a818361113b565b5f610af2565b60405162461bcd60e51b8152602060048201526013818701527221b0b73737ba103830bc903cb7bab939b2b63360691b6044820152606490fd5b60405162461bcd60e51b815260206004820152601d818701527f416d6f756e74206d7573742062652067726561746572207468616e20300000006044820152606490fd5b60405162461bcd60e51b8152602060048201526022818701527f53746f7265206f776e65722063616e6e6f74206265207a65726f206164647265604482015261737360f01b6064820152608490fd5b34610bef575f366003190112610bef576004546040516001600160a01b039091168152602090f35b34610bef575f366003190112610bef576003546040516001600160a01b039091168152602090f35b34610bef575f366003190112610bef57602060ff60055460a01c166040519015158152f35b34610bef575f366003190112610bef57610eb4611255565b60055460ff8160a01c1615610efd5760ff60a01b191660055560405142815233907f107553d8191d85b405879cf752997865edd48d94e20bda4dd27223c94b31a7cc90602090a2005b60405162461bcd60e51b815260206004820152600a602482015269139bdd081c185d5cd95960b21b6044820152606490fd5b34610bef576040366003190112610bef57610f48611075565b336001600160a01b03821603610f6657610f6490600435611345565b005b60405163334bd91960e11b8152600490fd5b34610bef576040366003190112610bef57600435610f94611075565b815f525f602052610fab600160405f200154611324565b610fb581836113a0565b610fbb57005b5f91825260016020526040909120610f64916001600160a01b0316906114a3565b34610bef576020366003190112610bef576004355f525f6020526020600160405f200154604051908152f35b34610bef576020366003190112610bef576004359063ffffffff60e01b8216809203610bef57602091635a05180f60e01b811490811561104a575b5015158152f35b637965db0b60e01b811491508115611064575b5083611043565b6301ffc9a760e01b1490508361105d565b602435906001600160a01b0382168203610bef57565b600435906001600160a01b0382168203610bef57565b9181601f84011215610bef5782359167ffffffffffffffff8311610bef576020808501948460051b010111610bef57565b156110d957565b60405162461bcd60e51b815260206004820152601260248201527110dbdb9d1c9858dd081a5cc81c185d5cd95960721b6044820152606490fd5b67ffffffffffffffff811161112757604052565b634e487b7160e01b5f52604160045260245ffd5b90601f8019910116810190811067ffffffffffffffff82111761112757604052565b90816020910312610bef57518015158103610bef5790565b94939280604093608093885260606020890152816060890152838801375f828288010152601f8019910116850101930152565b156111af57565b60405162461bcd60e51b815260206004820152601660248201527543616e6e6f74206265207a65726f206164647265737360501b6044820152606490fd5b156111f457565b60405162461bcd60e51b8152602060048201526015602482015274082e4e4c2f240d8cadccee8d040dad2e6dac2e8c6d605b1b6044820152606490fd5b91908110156112415760051b0190565b634e487b7160e01b5f52603260045260245ffd5b335f9081527f797e0b86ff47a7852e6aa2fbaad2fe3f2db21364d644c39c926eba6085d49f3460205260409020547f539440820030c4994db4e31b6b800deafd503688728f932addfe7a410515c14c9060ff16156112b05750565b6044906040519063e2517d3f60e01b82523360048301526024820152fd5b335f9081527fad3228b676f7d3cd4284a5443f17f1962b36e491b30a40b2405849e597ba5fb5602052604090205460ff161561130657565b60405163e2517d3f60e01b81523360048201525f6024820152604490fd5b805f525f60205260405f20335f5260205260ff60405f205416156112b05750565b61134f828261141c565b918261135a57505090565b5f9182526001602052604090912061137b916001600160a01b031690611512565b5090565b600280541461138e5760028055565b604051633ee5aeb560e01b8152600490fd5b90815f525f60205260405f209060018060a01b031690815f5260205260ff60405f205416155f1461141657815f525f60205260405f20815f5260205260405f20600160ff1982541617905533917f2f8788117e7eff1d82e926ec794901d17c78024a50270940304540a733656f0d5f80a4600190565b50505f90565b90815f525f60205260405f209060018060a01b031690815f5260205260ff60405f2054165f1461141657815f525f60205260405f20815f5260205260405f2060ff19815416905533917ff6391f5c32d9c69d2a47ea670b442974b53935d1edc7fd64eb21e047a839171b5f80a4600190565b8054821015611241575f5260205f2001905f90565b6001810190825f528160205260405f2054155f1461150b57805468010000000000000000811015611127576114f86114e282600187940185558461148e565b819391549060031b91821b915f19901b19161790565b905554915f5260205260405f2055600190565b5050505f90565b906001820191815f528260205260405f2054908115155f146115e3575f19918083018181116115cf578254908482019182116115cf5781810361159a575b5050508054801561158657820191611568838361148e565b909182549160031b1b19169055555f526020525f6040812055600190565b634e487b7160e01b5f52603160045260245ffd5b6115ba6115aa6114e2938661148e565b90549060031b1c9283928661148e565b90555f528460205260405f20555f8080611550565b634e487b7160e01b5f52601160045260245ffd5b505050505f9056fe33b1bf699f9ee1c1b4a2eb2ee567743c22d4b5888b80675f4efe1962d010fa0da264697066735822122033ea453b78770861e5ab0177ed531fafaeaa68a604599e91afa2cce5185999b964736f6c634300081800332f8788117e7eff1d82e926ec794901d17c78024a50270940304540a733656f0dad3228b676f7d3cd4284a5443f17f1962b36e491b30a40b2405849e597ba5fb5",
  "linkReferences": {},
  "deployedLinkReferences": {}
}