{
  "_format": "hh-sol-artifact-1",
  "contractName": "VerifiedStoreRegistry",
  "sourceName": "contracts/VerifiedStoreRegistry.sol",
  "abi": [
    {
      "inputs": [
        {
          "internalType": "address",
          "name": "admin",
          "type": "address"
        }
      ],
      "stateMutability": "nonpayable",
      "type": "constructor"
    },
    {
      "inputs": [],
      "name": "AccessControlBadConfirmation",
      "type": "error"
    },
    {
      "inputs": [
        {
          "internalType": "address",
          "name": "account",
          "type": "address"
        },
        {
          "internalType": "bytes32",
          "name": "neededRole",
          "type": "bytes32"
        }
      ],
      "name": "AccessControlUnauthorizedAccount",
      "type": "error"
    },
    {
      "anonymous": false,
      "inputs": [
        {
          "indexed": true,
          "internalType": "bytes32",
          "name": "role",
          "type": "bytes32"
        },
        {
          "indexed": true,
          "internalType": "bytes32",
          "name": "previousAdminRole",
          "type": "bytes32"
        },
        {
          "indexed": true,
          "internalType": "bytes32",
          "name": "newAdminRole",
          "type": "bytes32"
        }
      ],
      "name": "RoleAdminChanged",
      "type": "event"
    },
    {
      "anonymous": false,
      "inputs": [
        {
          "indexed": true,
          "internalType": "bytes32",
          "name": "role",
          "type": "bytes32"
        },
        {
          "indexed": true,
          "internalType": "address",
          "name": "account",
          "type": "address"
        },
        {
          "indexed": true,
          "internalType": "address",
          "name": "sender",
          "type": "address"
        }
      ],
      "name": "RoleGranted",
      "type": "event"
    },
    {
      "anonymous": false,
      "inputs": [
        {
          "indexed": true,
          "internalType": "bytes32",
          "name": "role",
          "type": "bytes32"
        },
        {
          "indexed": true,
          "internalType": "address",
          "name": "account",
          "type": "address"
        },
        {
          "indexed": true,
          "internalType": "address",
          "name": "sender",
          "type": "address"
        }
      ],
      "name": "RoleRevoked",
      "type": "event"
    },
    {
      "anonymous": false,
      "inputs": [
        {
          "indexed": true,
          "internalType": "address",
          "name": "storeOwner",
          "type": "address"
        },
        {
          "indexed": false,
          "internalType": "bytes32",
          "name": "oldCategoryKey",
          "type": "bytes32"
        },
        {
          "indexed": false,
          "internalType": "bytes32",
          "name": "newCategoryKey",
          "type": "bytes32"
        },
        {
          "indexed": false,
          "internalType": "address",
          "name": "updatedBy",
          "type": "address"
        },
        {
          "indexed": false,
          "internalType": "uint256",
          "name": "timestamp",
          "type": "uint256"
        }
      ],
      "name": "StoreCategoryUpdated",
      "type": "event"
    },
    {
      "anonymous": false,
      "inputs": [
        {
          "indexed": true,
          "internalType": "address",
          "name": "storeOwner",
          "type": "address"
        },
        {
          "indexed": false,
          "internalType": "bytes32",
          "name": "oldStoreKey",
          "type": "bytes32"
        },
        {
          "indexed": false,
          "internalType": "bytes32",
          "name": "newStoreKey",
          "type": "bytes32"
        },
        {
          "indexed": false,
          "internalType": "address",
          "name": "updatedBy",
          "type": "address"
        },
        {
          "indexed": false,
          "internalType": "uint256",
          "name": "timestamp",
          "type": "uint256"
        }
      ],
      "name": "StoreKeyUpdated",
      "type": "event"
    },
    {
      "anonymous": false,
      "inputs": [
        {
          "indexed": true,
          "internalType": "address",
          "name": "storeOwner",
          "type": "address"
        },
        {
          "indexed": false,
          "internalType": "address",
          "name": "unverifiedBy",
          "type": "address"
        },
        {
          "indexed": false,
          "internalType": "uint256",
          "name": "timestamp",
          "type": "uint256"
        }
      ],
      "name": "StoreUnverified",
      "type": "event"
    },
    {
      "anonymous": false,
      "inputs": [
        {
          "indexed": true,
          "internalType": "address",
          "name": "storeOwner",
          "type": "address"
        },
        {
          "indexed": true,
          "internalType": "bytes32",
          "name": "categoryKey",
          "type": "bytes32"
        },
        {
          "indexed": true,
          "internalType": "bytes32",
          "name": "storeKey",
          "type": "bytes32"
        },
        {
          "indexed": false,
          "internalType": "address",
          "name": "verifiedBy",
          "type": "address"
        },
        {
          "indexed": false,
          "internalType": "uint256",
          "name": "timestamp",
          "type": "uint256"
        }
      ],
      "name": "StoreVerified",
      "type": "event"
    },
    {
      "inputs": [],
      "name": "DEFAULT_ADMIN_ROLE",
      "outputs": [
        {
          "internalType": "bytes32",
          "name": "",
          "type": "bytes32"
        }
      ],
      "stateMutability": "view",
      "type": "function"
    },
    {
      "inputs": [],
      "name": "REGISTRY_MANAGER",
      "outputs": [
        {
          "internalType": "bytes32",
          "name": "",
          "type": "bytes32"
        }
      ],
      "stateMutability": "view",
      "type": "function"
    },
    {
      "inputs": [
        {
          "internalType": "bytes32",
          "name": "role",
          "type": "bytes32"
        }
      ],
      "name": "getRoleAdmin",
      "outputs": [
        {
          "internalType": "bytes32",
          "name": "",
          "type": "bytes32"
        }
      ],
      "stateMutability": "view",
      "type": "function"
    },
    {
      "inputs": [
        {
          "internalType": "bytes32",
          "name": "role",
          "type": "bytes32"
        },
        {
          "internalType": "uint256",
          "name": "index",
          "type": "uint256"
        }
      ],
      "name": "getRoleMember",
      "outputs": [
        {
          "internalType": "address",
          "name": "",
          "type": "address"
        }
      ],
      "stateMutability": "view",
      "type": "function"
    },
    {
      "inputs": [
        {
          "internalType": "bytes32",
          "name": "role",
          "type": "bytes32"
        }
      ],
      "name": "getRoleMemberCount",
      "outputs": [
        {
          "internalType": "uint256",
          "name": "",
          "type": "uint256"
        }
      ],
      "stateMutability": "view",
      "type": "function"
    },
    {
      "inputs": [
        {
          "internalType": "bytes32",
          "name": "role",
          "type": "bytes32"
        }
      ],
      "name": "getRoleMembers",
      "outputs": [
        {
          "internalType": "address[]",
          "name": "",
          "type": "address[]"
        }
      ],
      "stateMutability": "view",
      "type": "function"
    },
    {
      "inputs": [
        {
          "internalType": "address",
          "name": "storeOwner",
          "type": "address"
        }
      ],
      "name": "getStoreInfo",
      "outputs": [
        {
          "components": [
            {
              "internalType": "bool",
              "name": "isVerified",
              "type": "bool"
            },
            {
              "internalType": "bytes32",
              "name": "categoryKey",
              "type": "bytes32"
            },
            {
              "internalType": "bytes32",
              "name": "storeKey",
              "type": "bytes32"
            },
            {
              "internalType": "uint256",
              "name": "verifiedAt",
              "type": "uint256"
            },
            {
              "internalType": "uint256",
              "name": "updatedAt",
              "type": "uint256"
            }
          ],
          "internalType": "struct VerifiedStoreRegistry.StoreInfo",
          "name": "",
          "type": "tuple"
        }
      ],
      "stateMutability": "view",
      "type": "function"
    },
    {
      "inputs": [],
      "name": "getVerifiedStoreCount",
      "outputs": [
        {
          "internalType": "uint256",
          "name": "",
          "type": "uint256"
        }
      ],
      "stateMutability": "view",
      "type": "function"
    },
    {
      "inputs": [],
      "name": "getVerifiedStores",
      "outputs": [
        {
          "internalType": "address[]",
          "name": "",
          "type": "address[]"
        }
      ],
      "stateMutability": "view",
      "type": "function"
    },
    {
      "inputs": [
        {
          "internalType": "bytes32",
          "name": "role",
          "type": "bytes32"
        },
        {
          "internalType": "address",
          "name": "account",
          "type": "address"
        }
      ],
      "name": "grantRole",
      "outputs": [],
      "stateMutability": "nonpayable",
      "type": "function"
    },
    {
      "inputs": [
        {
          "internalType": "bytes32",
          "name": "role",
          "type": "bytes32"
        },
        {
          "internalType": "address",
          "name": "account",
          "type": "address"
        }
      ],
      "name": "hasRole",
      "outputs": [
        {
          "internalType": "bool",
          "name": "",
          "type": "bool"
        }
      ],
      "stateMutability": "view",
      "type": "function"
    },
    {
      "inputs": [
        {
          "internalType": "address",
          "name": "storeOwner",
          "type": "address"
        }
      ],
      "name": "isVerified",
      "outputs": [
        {
          "internalType": "bool",
          "name": "",
          "type": "bool"
        }
      ],
      "stateMutability": "view",
      "type": "function"
    },
    {
      "inputs": [
        {
          "internalType": "bytes32",
          "name": "role",
          "type": "bytes32"
        },
        {
          "internalType": "address",
          "name": "callerConfirmation",
          "type": "address"
        }
      ],
      "name": "renounceRole",
      "outputs": [],
      "stateMutability": "nonpayable",
      "type": "function"
    },
    {
      "inputs": [
        {
          "internalType": "bytes32",
          "name": "role",
          "type": "bytes32"
        },
        {
          "internalType": "address",
          "name": "account",
          "type": "address"
        }
      ],
      "name": "revokeRole",
      "outputs": [],
      "stateMutability": "nonpayable",
      "type": "function"
    },
    {
      "inputs": [
        {
          "internalType": "address",
          "name": "",
          "type": "address"
        }
      ],
      "name": "stores",
      "outputs": [
        {
          "internalType": "bool",
          "name": "isVerified",
          "type": "bool"
        },
        {
          "internalType": "bytes32",
          "name": "categoryKey",
          "type": "bytes32"
        },
        {
          "internalType": "bytes32",
          "name": "storeKey",
          "type": "bytes32"
        },
        {
          "internalType": "uint256",
          "name": "verifiedAt",
          "type": "uint256"
        },
        {
          "internalType": "uint256",
          "name": "updatedAt",
          "type": "uint256"
        }
      ],
      "stateMutability": "view",
      "type": "function"
    },
    {
      "inputs": [
        {
          "internalType": "bytes4",
          "name": "interfaceId",
          "type": "bytes4"
        }
      ],
      "name": "supportsInterface",
      "outputs": [
        {
          "internalType": "bool",
          "name": "",
          "type": "bool"
        }
      ],
      "stateMutability": "view",
      "type": "function"
    },
    {
      "inputs": [
        {
          "internalType": "address",
          "name": "storeOwner",
          "type": "address"
        }
      ],
      "name": "unverifyStore",
      "outputs": [],
      "stateMutability": "nonpayable",
      "type": "function"
    },
    {
      "inputs": [
        {
          "internalType": "address",
          "name": "storeOwner",
          "type": "address"
        },
        {
          "internalType": "bytes32",
          "name": "newCategoryKey",
          "type": "bytes32"
        }
      ],
      "name": "updateStoreCategory",
      "outputs": [],
      "stateMutability": "nonpayable",
      "type": "function"
    },
    {
      "inputs": [
        {
          "internalType": "address",
          "name": "storeOwner",
          "type": "address"
        },
        {
          "internalType": "bytes32",
          "name": "newStoreKey",
          "type": "bytes32"
        }
      ],
      "name": "updateStoreKey",
      "outputs": [],
      "stateMutability": "nonpayable",
      "type": "function"
    },
    {
      "inputs": [
        {
          "internalType": "address",
          "name": "storeOwner",
          "type": "address"
        },
        {
          "internalType": "bytes32",
          "name": "categoryKey",
          "type": "bytes32"
        },
        {
          "internalType": "bytes32",
          "name": "storeKey",
          "type": "bytes32"
        }
      ],
      "name": "verifyStore",
      "outputs": [],
      "stateMutability": "nonpayable",
      "type": "function"
    },
    {
      "inputs": [
        {
          "internalType": "address[]",
          "name": "storeOwners",
          "type": "address[]"
        },
        {
          "internalType": "bytes32[]",
          "name": "categoryKeys",
          "type": "bytes32[]"
        },
        {
          "internalType": "bytes32[]",
          "name": "storeKeys",
          "type": "bytes32[]"
        }
      ],
      "name": "verifyStoresBatch",
      "outputs": [],
      "stateMutability": "nonpayable",
      "type": "function"
    }
  ],
  "bytecode": "0x6080346200015857601f620015e038819003918201601f19168301916001600160401b038311848410176200015c578084926020946040528339810103126200015857516001600160a01b03811690818103620001585781156200011357806200006d620000789262000170565b620000d857620001e0565b6200008e575b60405161129e9081620002e28239f35b5f80516020620015a08339815191525f526001602052620000d0907f831eb3c8418abe7317901a87e38aaa635cd3f1f32534a0f2634e60e099db6cf96200026e565b505f6200007e565b5f805260016020526200010c837fa6eef7e35abe7026729641147f7915573c7e97b47efa546f5f6e3230263bcb496200026e565b50620001e0565b60405162461bcd60e51b815260206004820152601c60248201527f41646d696e2063616e6e6f74206265207a65726f2061646472657373000000006044820152606490fd5b5f80fd5b634e487b7160e01b5f52604160045260245ffd5b6001600160a01b03165f8181525f80516020620015c0833981519152602052604090205460ff16620001db575f8181525f80516020620015c083398151915260205260408120805460ff191660011790553391905f80516020620015808339815191528180a4600190565b505f90565b6001600160a01b03165f8181527f1d71ac1c2e2b8401cd7b1dcfd40a9d5365cc20eeccef1a2b8001c5c3b83f869b60205260409020545f80516020620015a0833981519152919060ff166200026857815f525f60205260405f20815f5260205260405f20600160ff1982541617905533915f80516020620015808339815191525f80a4600190565b50505f90565b6001810190825f528160205260405f2054155f14620002da578054680100000000000000008110156200015c5760018101808355811015620002c6578390825f5260205f20015554915f5260205260405f2055600190565b634e487b7160e01b5f52603260045260245ffd5b5050505f9056fe608060409080825260049081361015610016575f80fd5b5f3560e01c90816301ffc9a714610c5457508063248a9ca314610c2a5780632f2ff15d14610bc9578063329a587314610b14578063363b545b14610ada57806336568abe14610a955780635b33d766146108f0578063621df5341461088a5780636539143c146106f15780639010d07c146106b157806391d148541461066d5780639fe4deee146105ec578063a217fddf146105d2578063a3246ad314610559578063b594ab411461053b578063b9209e33146104ff578063ca15c873146104d7578063d4f32b47146102c3578063d547741f14610287578063dcef8e21146101cb5763ec779a2614610107575f80fd5b346101c757816003193601126101c7577f8bf5a56bb4f5f005c295b90429ab2b6d954f35c49abaa4caa2fd13eb76fead9a90610141610cd6565b906101c260243592610151610f63565b60018060a01b031694855f52600260205261017160ff825f205416610ece565b61017c841515610dff565b855f526002602052805f2060028101938585549555429101555192839242913391859094939260609260808301968352602083015260018060a01b031660408201520152565b0390a2005b5f80fd5b50346101c757816003193601126101c7577f4ebcc456265c1d41509cdf3f52856e820a3960fc5b08de277846b3df24a0a98f90610206610cd6565b906101c260243592610216610f63565b60018060a01b031694855f52600260205261023660ff825f205416610ece565b610241841515610db3565b855f526002602052805f2060018101938585549555429101555192839242913391859094939260609260808301968352602083015260018060a01b031660408201520152565b5090346101c757806003193601126101c7576102c191356102bc60016102ab610cc0565b93835f525f6020525f200154610fdc565b610ffd565b005b5090346101c75760609160606003193601126101c75767ffffffffffffffff81358181116101c7576102f89036908401610d30565b9190936024358281116101c7576103129036908601610d30565b9190926044359081116101c75761032c9036908701610d30565b979094610337610f63565b610342848214610f0f565b61034d898214610f0f565b80156104a5575f5b81811061035e57005b61036981838b610f53565b356001600160a01b03811691908281036101c7578b60019361039884610390818c8e610f53565b35938d610f53565b35928115801561049d575b8015610495575b61048c57815f528c6002896020938285528c60ff815f20541661047e57848787958b610439968c61041e8751976103e089610d61565b6001869094858b528d8b01948552828b019687528a019c8d42905260808b0198428a525f52525f2097511515889060ff801983541691151516179055565b51908601555190840155600395518684015551910155610ea9565b545f848152919092528990205587513381524260208201527f576709997acae8ce3015800b0c5a9074084b15a478931d231ff83596542e06b290604090a45b01610355565b505050505050505050610478565b50505050610478565b5083156103aa565b5082156103a3565b825162461bcd60e51b8152602081890152600c60248201526b456d7074792061727261797360a01b6044820152606490fd5b5090346101c75760203660031901126101c757602091355f5260018252805f20549051908152f35b82346101c75760203660031901126101c7576020906001600160a01b03610524610cd6565b165f526002825260ff815f20541690519015158152f35b82346101c7575f3660031901126101c7576020906003549051908152f35b50346101c75760209060206003193601126101c7578290355f526001906001602052805f209281519283602086549182815201955f5260205f20925f905b8282106105bd576105b987876105af828c0383610d91565b5191829182610cec565b0390f35b84548852968701969383019390830190610597565b82346101c7575f3660031901126101c757602090515f8152f35b82346101c7575f3660031901126101c7578051600380548083525f918252602080840194927fc2575a0e9e593c00f959f8c92f12db2869c3395a3b0502d05e2516446f71f85b92915b82821061064d576105b986866105af828b0383610d91565b83546001600160a01b031687529586019560019384019390910190610635565b5090346101c757806003193601126101c75760209161068a610cc0565b90355f525f8352815f209060018060a01b03165f52825260ff815f20541690519015158152f35b5090346101c757806003193601126101c757602091355f52600182526106db602435825f20610e94565b905491519160018060a01b039160031b1c168152f35b5090346101c757602090816003193601126101c75761070e610cd6565b92610717610f63565b60018060a01b0380941692835f526002815261073860ff845f205416610ece565b835f5260028152825f2060ff1981541681558242910155818152825f20549485610796575b835133815242602082015285907fdf12e2ebf2996651b95ce6274edb5c98bbad9d8c7d7c11fc19a6b78d3e45131d9080604081016101c2565b6003545f199690878101908111610877576107b18391610e4b565b90549060031b1c1687820182811161086457816107d06107ee92610e4b565b90919060018060a01b038084549260031b9316831b921b1916179055565b5f52838352845f2055600354958615610851577fdf12e2ebf2996651b95ce6274edb5c98bbad9d8c7d7c11fc19a6b78d3e45131d9596019061082f82610e4b565b909182549160031b1b19169055600355845f52525f8181205582915f8061075d565b603184634e487b7160e01b5f525260245ffd5b601186634e487b7160e01b5f525260245ffd5b601185634e487b7160e01b5f525260245ffd5b50346101c75760203660031901126101c75760a0916001600160a01b036108af610cd6565b165f526002602052805f2060ff8154169260018201549260028301549160038401549301549381519515158652602086015284015260608301526080820152f35b5090346101c75760603660031901126101c75761090b610cd6565b602435916044359361091b610f63565b6001600160a01b038316928315610a4757610937851515610db3565b610942861515610dff565b835f52600260205260ff835f205416610a0b57906109e883927f576709997acae8ce3015800b0c5a9074084b15a478931d231ff83596542e06b2945161098781610d61565b6001815283602082018981528683018b8152606084019042825260808501924284528b5f5260026020526109cd8a5f2096511515879060ff801983541691151516179055565b51600186015551600285015551600384015551910155610ea9565b6003545f85815260209283528390205590513381524291810191909152604090a4005b506020606492519162461bcd60e51b8352820152601660248201527514dd1bdc9948185b1c9958591e481d995c9a599a595960521b6044820152fd5b506020608492519162461bcd60e51b8352820152602260248201527f53746f7265206f776e65722063616e6e6f74206265207a65726f206164647265604482015261737360f01b6064820152fd5b5090346101c757806003193601126101c757610aaf610cc0565b90336001600160a01b03831603610acb57506102c19135610ffd565b5163334bd91960e11b81529050fd5b82346101c7575f3660031901126101c757602090517f98384286fcdcbfa787823371d084455c0f6a6ca775c8f7c2623f3981b6390d548152f35b50346101c75760203660031901126101c75760a091610b31610cd6565b5f60808351610b3f81610d61565b82815282602082015282858201528260608201520152600180851b03165f526002602052805f20815191610b7283610d61565b60ff8254161515938484526001830154602085019081526080600285015492848701938452600386015495606088019687520154950194855282519586525160208601525190840152516060830152516080820152f35b50346101c757816003193601126101c7573590610be4610cc0565b90825f525f602052610bfb6001825f200154610fdc565b610c058284611037565b610c0b57005b5f92835260016020529091206102c1916001600160a01b031690611125565b5090346101c75760203660031901126101c757602091355f525f82526001815f2001549051908152f35b82346101c75760203660031901126101c757359063ffffffff60e01b82168092036101c757602091635a05180f60e01b8114908115610c95575b5015158152f35b637965db0b60e01b811491508115610caf575b5083610c8e565b6301ffc9a760e01b14905083610ca8565b602435906001600160a01b03821682036101c757565b600435906001600160a01b03821682036101c757565b60209060206040818301928281528551809452019301915f5b828110610d13575050505090565b83516001600160a01b031685529381019392810192600101610d05565b9181601f840112156101c75782359167ffffffffffffffff83116101c7576020808501948460051b0101116101c757565b60a0810190811067ffffffffffffffff821117610d7d57604052565b634e487b7160e01b5f52604160045260245ffd5b90601f8019910116810190811067ffffffffffffffff821117610d7d57604052565b15610dba57565b60405162461bcd60e51b815260206004820152601c60248201527f43617465676f7279206b65792063616e6e6f7420626520656d707479000000006044820152606490fd5b15610e0657565b60405162461bcd60e51b815260206004820152601960248201527f53746f7265206b65792063616e6e6f7420626520656d707479000000000000006044820152606490fd5b600354811015610e805760035f527fc2575a0e9e593c00f959f8c92f12db2869c3395a3b0502d05e2516446f71f85b01905f90565b634e487b7160e01b5f52603260045260245ffd5b8054821015610e80575f5260205f2001905f90565b60035490600160401b821015610d7d576107d0826001610ecc9401600355610e4b565b565b15610ed557565b60405162461bcd60e51b815260206004820152601260248201527114dd1bdc99481b9bdd081d995c9a599a595960721b6044820152606490fd5b15610f1657565b60405162461bcd60e51b8152602060048201526015602482015274082e4e4c2f240d8cadccee8d040dad2e6dac2e8c6d605b1b6044820152606490fd5b9190811015610e805760051b0190565b335f9081527f1d71ac1c2e2b8401cd7b1dcfd40a9d5365cc20eeccef1a2b8001c5c3b83f869b60205260409020547f98384286fcdcbfa787823371d084455c0f6a6ca775c8f7c2623f3981b6390d549060ff1615610fbe5750565b6044906040519063e2517d3f60e01b82523360048301526024820152fd5b805f525f60205260405f20335f5260205260ff60405f20541615610fbe5750565b61100782826110b3565b918261101257505090565b5f91825260016020526040909120611033916001600160a01b03169061118f565b5090565b90815f525f60205260405f209060018060a01b031690815f5260205260ff60405f205416155f146110ad57815f525f60205260405f20815f5260205260405f20600160ff1982541617905533917f2f8788117e7eff1d82e926ec794901d17c78024a50270940304540a733656f0d5f80a4600190565b50505f90565b90815f525f60205260405f209060018060a01b031690815f5260205260ff60405f2054165f146110ad57815f525f60205260405f20815f5260205260405f2060ff19815416905533917ff6391f5c32d9c69d2a47ea670b442974b53935d1edc7fd64eb21e047a839171b5f80a4600190565b6001810190825f528160205260405f2054155f14611188578054600160401b811015610d7d5761117561115f826001879401855584610e94565b819391549060031b91821b915f19901b19161790565b905554915f5260205260405f2055600190565b5050505f90565b906001820191815f528260205260405f2054908115155f14611260575f199180830181811161124c5782549084820191821161124c57818103611217575b50505080548015611203578201916111e58383610e94565b909182549160031b1b19169055555f526020525f6040812055600190565b634e487b7160e01b5f52603160045260245ffd5b61123761122761115f9386610e94565b90549060031b1c92839286610e94565b90555f528460205260405f20555f80806111cd565b634e487b7160e01b5f52601160045260245ffd5b505050505f9056fea26469706673582212208fabd47103606378c83bd17a68f88a0f19da3b3a3638f0dc747bd5843dc54f8864736f6c634300081800332f8788117e7eff1d82e926ec794901d17c78024a50270940304540a733656f0d98384286fcdcbfa787823371d084455c0f6a6ca775c8f7c2623f3981b6390d54ad3228b676f7d3cd4284a5443f17f1962b36e491b30a40b2405849e597ba5fb5",
  "linkReferences": {},
  "deployedLinkReferences": {}
}